:020000040000FA
:06000000EFEF25F01200F5
:06200000EFEF25F01200D5
:062008001CEF10F01200B5
:0620180067EF10F012005A
:06202A000100264C00003D
:08203000600000004600000002
:08203800DACFE4FFE2CFDAFF8A
:10204000E9CFE4FFEACFE4FFF6CFE4FFF7CFE4FF08
:10205000F5CFE4FFF3CFE4FFF4CFE4FFFACFE4FFE2
:1020600000EE00F0140EE80403E3EECFE4FFFBD72C
:1020700000EE14F0120EE80403E3EECFE4FFFBD70A
:10208000E652A4EC1CF0E55200EE25F0120EE80436
:1020900003E3E5CFEDFFFBD700EE13F0140EE804E9
:1020A00003E3E5CFEDFFFBD7E5CFFAFFE5CFF4FF84
:1020B000E5CFF3FFE5CFF5FFE5CFF7FFE5CFF6FF7F
:1020C000E5CFEAFFE5CFE9FFE5CFDAFF1100D8CF92
:1020D000E4FFE0CFE4FFE46EDACFE4FFE2CFDAFF23
:1020E000E652E552E5CFDAFFE550E5CFE0FFE5CF78
:1020F000D8FF100005D887EC24F027D8FED71200AF
:102100000F0EC16E848E8C6802D856EF1CF0936857
:10211000F19EFD0E956E848E8C6896829684C00E1C
:102120009216380E9416969072D8D59ED59CD59A54
:10213000D596D584D582D580F29AF294D58E0001B9
:10214000626B636B606B616B1200200E0101E76EC6
:102150000019E8AE02D0E73402D0E750005D03E397
:102160006D50020B01E01DD0C9EC15F06FEC16F0BC
:10217000EBD90001982B9851146E156A153404E2BE
:1021800014508F08000E155401E2986B992B000E25
:102190009A23E90ED8809955030E9A5502E2996B5D
:1021A0009A6B1200D9CFE6FFE1CFD9FF020EE126EC
:1021B000D950FD0FE96EFF0EDA20EA6E000ED880CE
:1021C000EE54000EED5419E2DF6A0E0EDF5C0FE2F2
:1021D000010EDB6A450EF36E010EDBCFF4FFF35008
:1021E000F45C03E2010EDB2AF5D7DF2AEED7FD0E01
:1021F000DB06FE0E01E2DB06DBD7020EE15C02E24B
:10220000E16AE552E16EE552E7CFD9FF12006FD8DF
:10221000010EE66E800EE66E93D8E552E552E66A50
:10222000560EE66E8DD8E552E552E66A690EE66E08
:1022300087D8E552E552E66A730EE66E81D8E5521C
:10224000E552E66A740EE66E7BD8E552E552E66A20
:10225000610EE66E75D8E552E552E66A430EE66E0B
:102260006FD8E552E552E66A4E0EE66E69D8E55241
:10227000E552E66A430EE66E63D8E552E552010E7A
:10228000E66EC00EE66E5CD8E552E552E66A2E0EAA
:10229000E66E56D8E552E552E66A2E0EE66E50D846
:1022A000E552E552E66A2E0EE66E4AD8E552E55250
:1022B000E66A2E0EE66E44D8E552E552E66A2E0E28
:1022C000E66E3ED8E552E552E66A2E0EE66E38D846
:1022D000E552E552E66A2E0EE66E32D8E552E55238
:1022E000E66A2E0EE66E2CD8E552E55212008B906F
:1022F0008B928B84640EE66EE66A54DFE552E552FB
:1023000089968994898289900A0EE66EE66A4ADF88
:10231000E552E5528B94010EE66E280EE66E10D85B
:10232000E552E552010EE66E0C0EE66E09D8E55256
:10233000E552010EE66EE66E03D8E552E552120054
:10234000D9CFE6FFE1CFD9FF0A0EE66EE66A2ADFB3
:10235000E552E5528B928B84FD0EDB0402E18B90FB
:1023600001D08B80FE0EDBAE02D0898601D089962B
:10237000DBAC02D0898401D08994DBAA02D08982A7
:1023800001D08992DBA802D0898001D089900A0E01
:10239000E66EE66A07DFE552E5528B94010EE66EC3
:1023A000E66A00DFE552E5528B84FE0EDBA602D022
:1023B000898601D08996DBA402D0898401D08994D2
:1023C000DBA202D0898201D08992DBA002D0898071
:1023D00001D089900A0EE66EE66AE4DEE552E55227
:1023E0008B94E552E7CFD9FF1200120012001200C1
:1023F00012009EEF24F012001E0EE66E010EE66E35
:1024000009EC23F0E552E552400EE66E300EE66E22
:10241000040EE66EE66A010EE66EAFEC23F0146E73
:10242000050EE15E1450F3CF62F0F4CF63F01200BA
:102430006D840001080EE66F070EE76FE607000ED9
:10244000E75BE651E711FAE16D941200D9CFE6FFA0
:10245000E1CFD9FFFD0EDBCF08F0FE0EDBCF09F098
:10246000720E081801E1095033E0E868081802E12B
:10247000E86809182BE0740E081801E1095024E0FF
:10248000750E081801E109501DE0730E081801E1EE
:10249000095016E0030E081801E109500FE0020E82
:1024A000081801E1095008E0010E081801E109507F
:1024B00001E010D0A1DF0FD09EDF0DD09ADF0BD04E
:1024C00096DF09D092DF07D091DF05D091DF03D0EE
:1024D000000001D000D0010E00D0E552E7CFD9FFB7
:1024E0001200D9CFE6FFE1CFD9FFE652DF6A04013F
:1024F0002351030A1FE0010A01E021D0225101E02B
:1025000018D0DF6ADF50130813E3DF50EA6A300F98
:10251000E96E040EEA22EF50E66EDF50EA6A440FDD
:10252000E96E040EEA22E552E750EF6EDF2AEAD7A1
:1025300000D005D0225101E001D000D000D0E552FA
:10254000E552E7CFD9FF12000001AA51AB1104E117
:10255000F40EAA6F010EAB6FAA07000EAB5B000171
:10256000A251A31103E0A207000EA35BA451A51181
:1025700003E0A407000EA55B8450020B01E0010EEE
:10258000E824146E8450040B01E0010E14100001C5
:10259000A66F020EA65D08E1030EA75D05E1A82B5C
:1025A000010EE26FA92BE42BA60507E1030EA75D40
:1025B00004E1A807E26BA92BE42BE551E45D0AE1F5
:1025C0000001A15107E0880EA46F130EA56FA16B47
:1025D0000001E46B0001E551E45D03E00001010E40
:1025E000A16F0001E351E25D08E00001A451A511D3
:1025F00004E0880EA26F130EA36F0001AA51AB1165
:102600002EE1050EA903F3CFAFF0CEC0CCF0CFC0C2
:10261000CDF0D0C0CEF0D1C0CFF0D2C0D0F0D3C07A
:10262000D1F0D4C0D2F0D5C0D3F0D6C0D4F0D7C04A
:10263000D5F0D8C0D6F0D9C0D7F0DAC0D8F0DBC01A
:10264000D9F0DCC0DAF0DDC0DBF0DEC0DCF0DFC0EA
:10265000DDF0030EA903F350DE6FDF6BA96BA6C09C
:10266000A7F0E2C0E3F0E4C0E5F0A8C0AEF0120EBF
:10267000086E096ACCC00DF0CDC00EF0B7EC25F0A5
:1026800006C024F007C025F0240E086E096ACEC0EB
:102690000DF0CFC00EF0B7EC25F024500624226ECA
:1026A00025500720236E370E086E096AD0C00DF042
:1026B000D1C00EF0B7EC25F022500624206E235036
:1026C0000720216E490E086E096AD2C00DF0D3C0F2
:1026D0000EF0B7EC25F0205006241E6E2150072086
:1026E0001F6E5B0E086E096AD4C00DF0D5C00EF0E7
:1026F000B7EC25F01E5006241C6E1F5007201D6EDF
:102700006D0E086E096AD6C00DF0D7C00EF0B7EC9A
:1027100025F01C5006241A6E1D5007201B6E7F0EDC
:10272000086E096AD8C00DF0D9C00EF0B7EC25F0DC
:102730001A500624186E1B500720196E910E086E51
:10274000096ADAC00DF0DBC00EF0B7EC25F01850C6
:102750000624166E19500720176EA40E086E096A1B
:10276000DCC00DF0DDC00EF0B7EC25F016500624ED
:10277000146E17500720156EB60E086E096ADEC07B
:102780000DF0DFC00EF0B7EC25F014500624000168
:10279000E06F15500720E16FE80E0001991902E182
:1027A000030E9A1901E0B6D00001B06B81A0B08B86
:1027B00081A2B08D81A4B08F83BEB08183AAB08383
:1027C00083A6B08583A8B08783ACB089B16B81A69E
:1027D000B18181A8B18381ACB185040E0001815D16
:1027E00002E20001B18783BC17D0040E00016D5DC9
:1027F00002E3705106E00001B18F0001010E706F1D
:1028000008D06E5103E06C6B6E6B03D06C51030803
:1028100000E2010E6F6F0BD0040E00016C5D04E24C
:102820006F5102E06D6B6F6B010E6E6F706B00018C
:10283000B46B81BE1AD0040E0001725D02E37551C3
:1028400006E00001B4810001010E756F0AD07351DA
:1028500003E0716B736B05D07151030802E2000154
:10286000B1890001010E746F0BD0040E0001715D7F
:1028700004E2745102E0726B746B010E736F756B3E
:1028800083B019D0040E775D02E37A5106E00001AF
:10289000B4830001010E7A6F0AD0785103E0766BA1
:1028A000786B05D07651030802E20001B18B00017C
:1028B000010E796F0AD0040E765D04E2795102E0D0
:1028C000776B796B010E786F7A6B83B419D0040E35
:1028D0007C5D02E37F5106E00001B4850001010E3A
:1028E0007F6F0AD07D5103E07B6B7D6B05D07B5100
:1028F000030802E20001B18D0001010E7E6F0AD0D3
:10290000040E7B5D04E27E5102E07C6B7E6B010E67
:102910007D6F7F6BA251A31102E00001B48700011B
:10292000855107E08988898A8D808B8C8B8E8C827B
:102930002FD16951050A1FE0010A19E0070A13E0C7
:10294000010A0DE0030A07E0010A01E018D08B9CA0
:102950008B9E8C9214D08B9C8B9E8C8210D08B8CF7
:102960008B8E8C920CD08B9C8B8E8C9208D08B8C07
:102970008B9E8C9204D08B8C8B9E8C8200D0665167
:102980002CE067512AE06851050A1FE0010A19E0AE
:10299000070A13E0010A0DE0030A07E0010A01E05B
:1029A00018D08998899A8D9017D08998899A8D80A6
:1029B00013D08988898A8D900FD08998898A8D90C3
:1029C0000BD08988899A8D9007D08988899A8D80C3
:1029D00003D08998899A8D90DBD0665151E0685177
:1029E000050A42E0010A35E0070A28E0010A1BE077
:1029F000030A0EE0010A01E042D0050E6A5D04E21E
:102A00008998899A8D9003D08988898A8D8037D05A
:102A1000050E6A5D04E28998899A8D8003D08988C1
:102A2000898A8D802CD0050E6A5D04E28988898AA6
:102A30008D9003D08988898A8D8021D0050E6A5DAA
:102A400004E28998898A8D9003D08988898A8D804B
:102A500016D0050E6A5D04E28988899A8D9003D0AC
:102A60008988898A8D800BD0050E6A5D04E2898889
:102A7000899A8D8003D08988898A8D8000D088D0FA
:102A800067515DE06851050A4CE0010A3DE0070A24
:102A90002EE0010A1FE0030A10E0010A01E04ED017
:102AA0006A5103E0020E6A5D04E18998899A8D906B
:102AB00003D08988898A8D8041D06A5103E0020E53
:102AC0006A5D04E18998899A8D8003D08988898A12
:102AD0008D8034D06A5103E0020E6A5D04E189887A
:102AE000898A8D9003D08988898A8D8027D06A5100
:102AF00003E0020E6A5D04E18998898A8D9003D013
:102B00008988898A8D801AD06A5103E0020E6A5D35
:102B100004E18988899A8D9003D08988898A8D807B
:102B20000DD06A5103E0020E6A5D04E18988899A3A
:102B30008D8003D08988898A8D8000D029D0685102
:102B4000050A1FE0010A19E0070A13E0010A0DE077
:102B5000030A07E0010A01E018D08998899A8D904C
:102B600017D08998899A8D8013D08988898A8D9009
:102B70000FD08998898A8D900BD08988899A8D90F9
:102B800007D08988899A8D8003D08998899A8D90F9
:102B9000120000016251631102E1000E08D062C010
:102BA000E9FF63C0EAFFEF50800B01E0010E00096E
:102BB0004BE1010E040140150001646F020E040197
:102BC0004015E8407F0B0001656F040E04014015BD
:102BD000E840E8403F0B0001666F080E0401401515
:102BE000E840E840E8401F0B0001676F700E0401E9
:102BF0004115E8380F0B0001686F070E04014115FD
:102C00000001696F42C483F030C486F031C487F09C
:102C100032C488F033C489F034C48AF035C48BF0F0
:102C200036C48CF037C48DF038C48FF039C490F0BE
:102C30003AC491F03BC492F03CC493F03DC494F08C
:102C40003EC495F03FC496F06051611102E1000E60
:102C500008D060C0E9FF61C0EAFFEF50800B01E0DF
:102C6000010E000928E1AEC044F4AFC045F4B0C085
:102C700046F4B1C047F4E1C014F0156A14500401E1
:102C8000486F0001E0510401496FB4C04AF44B6B36
:102C9000080EE66E440EE66E040EE66E010EE66E5B
:102CA000E66EAFEC23F0146E050EE15E1450F3CF28
:102CB00060F0F4CF61F0140EE66E300EE66E040E96
:102CC000E66EE66A010EE66EAFEC23F0146E050EBA
:102CD000E15E1450F3CF62F0F4CF63F01200000114
:102CE0009D0E9F6F000EA06FD6509FC0E9FFA0C041
:102CF000EAFFEF6E9F2B000EA023D7509FC0E9FF85
:102D0000A0C0EAFFEF6EE40E9D5D160E9E5975E3BE
:102D10006A2B070E6A176C2B6C51146E156AFA0E2B
:102D2000141801E1155002E10A0E6C6F6D2B6D5104
:102D3000146E156AFA0E141801E1155002E10A0E1C
:102D40006D6F712B7151146E156AFA0E141801E132
:102D5000155002E10A0E716F722B7251146E156AD2
:102D6000FA0E141801E1155002E10A0E726F762B6B
:102D70007651146E156AFA0E141801E1155002E12D
:102D80000A0E766F772B7751146E156AFA0E1418A7
:102D900001E1155002E10A0E776F7B2B7B51146E17
:102DA000156AFA0E141801E1155002E10A0E7B6F44
:102DB0007C2B7C51146E156AFA0E141801E1155023
:102DC00002E10A0E7C6F812B8151080801E2816BC0
:102DD0006A5103E0040E6A5D01E16B2B060E146E6E
:102DE00014C00EF06BC009F0FDEC25F005C06BF0CF
:102DF00000019D6B9E6BD76AD66A6B050CE1825110
:102E00000AE0826B8451835D03E1010E856F01D07E
:102E1000856B83C084F0020E6B5D02E1010E826F50
:102E200085511AE04C0E866F690E876F6E0E886FA3
:102E3000750E896F780E8A6F430E8B6F4E0E8C6FF6
:102E4000430E8D6F2D0E8F6F906F916F926F936FFA
:102E5000946F956F966F00D0985115E18B848B908D
:102E60008B92898601D0899602D0898401D0899479
:102E700002D0898201D0899202D0898001D08990C4
:102E80008B94F5EF1BF0020E985D03E18B84F5EF58
:102E90001BF0040E985D16E18B848B908B9202D010
:102EA000898601D0899602D0898401D0899402D084
:102EB000898201D0899202D0898001D089908B9437
:102EC000F5EF1BF0060E985D03E18B84F5EF1BF028
:102ED000080E985D1AE18B848B928B8086AF02D0AE
:102EE000898601D0899686AD02D0898401D08994E3
:102EF00086AB02D0898201D0899286A902D08980CE
:102F000001D089908B94F5EF1BF00A0E985D03E1D8
:102F10008B84F5EF1BF00C0E985D1AE18B848B927D
:102F20008B8086A702D0898601D0899686A502D09B
:102F3000898401D0899486A302D0898201D08992A4
:102F400086A102D0898001D089908B94F5EF1BF087
:102F50000E0E985D03E18B84F5EF1BF0100E985D6B
:102F60001AE18B848B928B8087AF02D0898601D047
:102F7000899687AD02D0898401D0899487AB02D02D
:102F8000898201D0899287A902D0898001D0899055
:102F90008B94F5EF1BF0120E985D03E18B84F5EF37
:102FA0001BF0140E985D1AE18B848B928B8087A79F
:102FB00002D0898601D0899687A502D0898401D064
:102FC000899487A302D0898201D0899287A102D0F7
:102FD000898001D089908B94F5EF1BF0160E985DD7
:102FE00003E18B84F5EF1BF0180E985D1AE18B84DA
:102FF0008B928B8088AF02D0898601D0899688AD6C
:1030000002D0898401D0899488AB02D0898201D012
:10301000899288A902D0898001D089908B94F5EF9C
:103020001BF01A0E985D03E18B84F5EF1BF01C0E6C
:10303000985D1AE18B848B928B8088A702D0898659
:1030400001D0899688A502D0898401D0899488A36B
:1030500002D0898201D0899288A102D0898001D0D2
:1030600089908B94F5EF1BF01E0E985D03E18B8425
:10307000F5EF1BF0200E985D1AE18B848B928B800C
:1030800089AF02D0898601D0899689AD02D0898422
:1030900001D0899489AB02D0898201D0899289A913
:1030A00002D0898001D089908B94F5EF1BF0220E1D
:1030B000985D03E18B84F5EF1BF0240E985D19E118
:1030C0008B848B928B8089A702D0898601D08996C8
:1030D00089A502D0898401D0899489A302D08982EC
:1030E00001D0899289A102D0898001D089908B94E6
:1030F0007CD3260E985D02E18B8477D3280E985DF1
:1031000019E18B848B928B808AAF02D0898601D0A3
:1031100089968AAD02D0898401D089948AAB02D085
:10312000898201D089928AA902D0898001D08990B0
:103130008B945BD32A0E985D02E18B8456D32C0EC0
:10314000985D19E18B848B928B808AA702D0898647
:1031500001D089968AA502D0898401D089948AA356
:1031600002D0898201D089928AA102D0898001D0BF
:1031700089908B943AD32E0E985D02E18B8435D3DF
:10318000300E985D19E18B848B928B808BAF02D0CF
:10319000898601D089968BAD02D0898401D089942B
:1031A0008BAB02D0898201D089928BA902D0898011
:1031B00001D089908B9419D3320E985D02E18B84F3
:1031C00014D3340E985D19E18B848B928B808BA77E
:1031D00002D0898601D089968BA502D0898401D03E
:1031E00089948BA302D0898201D089928BA102D0CD
:1031F000898001D089908B94F8D2360E985D02E1D7
:103200008B84F3D2380E985D19E18B848B928B807E
:103210008CAF02D0898601D089968CAD02D089848A
:1032200001D089948CAB02D0898201D089928CA97B
:1032300002D0898001D089908B94D7D23A0E985DC4
:1032400002E18B84D2D23C0E985D19E18B848B9283
:103250008B808CA702D0898601D089968CA502D05C
:10326000898401D089948CA302D0898201D089926B
:103270008CA102D0898001D089908B94B6D23E0E69
:10328000985D02E18B84B1D2400E985D19E18B8488
:103290008B928B808DAF02D0898601D089968DADBF
:1032A00002D0898401D089948DAB02D0898201D06B
:1032B00089928DA902D0898001D089908B9495D272
:1032C000420E985D02E18B8490D2440E985D19E124
:1032D0008B848B928B808DA702D0898601D08996B2
:1032E0008DA502D0898401D089948DA302D08982D2
:1032F00001D089928DA102D0898001D089908B94D0
:1033000074D2460E985D02E18B846FD2480E985DB0
:1033100013E18B848B908B92898601D08996898466
:1033200001D0899402D0898201D0899202D089800B
:1033300001D089908B9459D24A0E985D02E18B841A
:1033400054D24C0E985D15E18B848B908B9202D0F9
:10335000898601D0899602D0898401D0899402D0CF
:10336000898201D0899202D0898001D089908B9482
:103370003CD24E0E985D02E18B8437D2500E985DA0
:1033800019E18B848B928B808FAF02D0898601D01C
:1033900089968FAD02D0898401D089948FAB02D0F9
:1033A000898201D089928FA902D0898001D0899029
:1033B0008B941BD2520E985D02E18B8416D2540E70
:1033C000985D19E18B848B928B808FA702D08986C0
:1033D00001D089968FA502D0898401D089948FA3CA
:1033E00002D0898201D089928FA102D0898001D038
:1033F00089908B94FAD1560E985D02E18B84F5D1B9
:10340000580E985D19E18B848B928B8090AF02D01F
:10341000898601D0899690AD02D0898401D08994A3
:1034200090AB02D0898201D0899290A902D0898084
:1034300001D089908B94D9D15A0E985D02E18B848A
:10344000D4D15C0E985D19E18B848B928B8090A710
:1034500002D0898601D0899690A502D0898401D0B6
:10346000899490A302D0898201D0899290A102D040
:10347000898001D089908B94B8D15E0E985D02E16D
:103480008B84B3D1600E985D19E18B848B928B8015
:1034900091AF02D0898601D0899691AD02D08984FE
:1034A00001D0899491AB02D0898201D0899291A9EF
:1034B00002D0898001D089908B9497D1620E985D5B
:1034C00002E18B8492D1640E985D19E18B848B921A
:1034D0008B8091A702D0898601D0899691A502D0D0
:1034E000898401D0899491A302D0898201D08992E4
:1034F00091A102D0898001D089908B9476D1660EFB
:10350000985D02E18B8471D1680E985D19E18B841E
:103510008B928B8092AF02D0898601D0899692AD32
:1035200002D0898401D0899492AB02D0898201D0E3
:10353000899292A902D0898001D089908B9455D12B
:103540006A0E985D02E18B8450D16C0E985D19E192
:103550008B848B928B8092A702D0898601D089962A
:1035600092A502D0898401D0899492A302D0898245
:1035700001D0899292A102D0898001D089908B9448
:1035800034D16E0E985D02E18B842FD1700E985D60
:1035900019E18B848B928B8093AF02D0898601D006
:1035A000899693AD02D0898401D0899493AB02D0DF
:1035B000898201D0899293A902D0898001D0899013
:1035C0008B9413D1720E985D02E18B840ED1740E30
:1035D000985D19E18B848B928B8093A702D08986AA
:1035E00001D0899693A502D0898401D0899493A3B0
:1035F00002D0898201D0899293A102D0898001D022
:1036000089908B94F2D0760E985D02E18B84EDD098
:10361000780E985D19E18B848B928B8094AF02D0E9
:10362000898601D0899694AD02D0898401D089948D
:1036300094AB02D0898201D0899294A902D089806A
:1036400001D089908B94D1D07A0E985D02E18B8461
:10365000CCD07C0E985D19E18B848B928B8094A7E3
:1036600002D0898601D0899694A502D0898401D0A0
:10367000899494A302D0898201D0899294A102D026
:10368000898001D089908B94B0D07E0E985D02E144
:103690008B84ABD09851146E156A800E141801E11A
:1036A000155019E18B848B928B8095AF02D089865F
:1036B00001D0899695AD02D0898401D0899495ABCB
:1036C00002D0898201D0899295A902D0898001D047
:1036D00089908B948AD09851146E156A820E1418B2
:1036E00001E1155002E18B8480D09851146E156A67
:1036F000840E141801E1155019E18B848B928B8094
:1037000095A702D0898601D0899695A502D0898493
:1037100001D0899495A302D0898201D0899295A184
:1037200002D0898001D089908B945FD09851146E1B
:10373000156A860E141801E1155002E18B8455D0EC
:103740009851146E156A880E141801E1155019E18C
:103750008B848B928B8096AF02D0898601D089961C
:1037600096AD02D0898401D0899496AB02D089822B
:1037700001D0899296A902D0898001D089908B943A
:1037800034D09851146E156A8A0E141801E1155040
:1037900002E18B842AD09851146E156A8C0E14188D
:1037A00001E1155019E18B848B928B8096A702D092
:1037B000898601D0899696A502D0898401D0899402
:1037C00096A302D0898201D0899296A102D08980E5
:1037D00001D089908B9409D09851146E156A8E0E81
:1037E000141801E1155001E18B84120004012351EA
:1037F000030A0AE0010A02E0000E0CD0225102E0A6
:10380000000E08D0020E06D0225102E0000E02D0B7
:10381000030E00D01200040123050DE122510AE13C
:103820000101300E116F040E126F080E146F156B2C
:10383000C10E136F0FD0030E235D0CE122510AE17C
:103840000101000E116F050E126F020E146F156B41
:10385000C10E136F1200CADF030A15E0010A01E06E
:1038600024D0040122510EE126C419F127C41AF113
:103870000101300E166F040E176FE20E1B6F240E3F
:103880001C6F188F12D0040122510EE126C419F1C9
:1038900027C41AF10101000E166F050E176FE20E14
:0C38A0001B6F240E1C6F188F00D012004C
:0438AC00D9CFE6FF8B
:1038B000E1CFD9FFE6526A6A686A160E6F6E9F0EF4
:1038C0006B6E7B0E696E6D8C6E6A000EE66EE66A3C
:1038D000E66A710EE66E0F0EE66ED5EC25F0146EFC
:1038E000050EE15E14506D9CDF6ADF50146E156AA0
:1038F000080E145C000E155810E2DF50040DF3CFD3
:10390000E9FFF4CFEAFF000EE926040EEA22EE6A90
:10391000EE6AEE6AEE6ADF2AE8D7160E706E68A6C7
:1039200002D06896FCD70101136B186B196B1A6BE8
:103930006D98080E0B6F040E0C6F016B006BE55257
:10394000E552E7CFD9FF1200D9CFE6FFE1CFD9FF8B
:10395000E6520101000507E16DBA05D0686A698089
:103960006988020E006F6850040B05E06950040B73
:1039700002E06894B5D86DA202D0A19A81D06850B7
:10398000010B12E06950010B0FE090DF0101040E02
:10399000006F0401200E026F040E036F080E016F0A
:1039A000006B8C0E001368906850100B05E0695096
:1039B000100B02E083D868986850400B13E0695000
:1039C000400B10E0010EE66EE66A000EE66EE66A57
:1039D000730EE66EE66A26EC12F0146E060EE15ED9
:1039E0001450689C6850200B04E06950200B01E0E3
:1039F0004CD86850020B12E06950020B0FE0010E28
:103A0000E66EE66A000EE66EE66AE668E66826ECB2
:103A100012F0146E060EE15E14506A6A040E010183
:103A2000E76E0019E8AE02D0E73402D0E750005D3F
:103A300002E2A19A25D069A622D0DF6A040EDF5CDB
:103A40001EE268A61BD06CCF20F16896780E0101AB
:103A5000201502E15AD810D0000EE66EE66A200E5C
:103A6000E66E010EE66E720EE66EE66A26EC12F067
:103A7000146E060EE15E1450DF2AE0D700D0A19A42
:103A8000E552E552E7CFD9FF120070A015D003C16F
:103A9000E9FF04C1EAFFEF5080080DE10BC1E9FF27
:103AA0000CC1EAFFEF50840806E103C1E9FF04C13D
:103AB000EAFF8C0EEF6E7090689A12006984689825
:103AC0006D82000EE66EE66AE66EE66A750EE66EDA
:103AD000E66A26EC12F0146E060EE15E1450120037
:103AE000000EE66EE66AE66EE66A740EE66EE66A5A
:103AF00026EC12F0146E060EE15E14506D9269947D
:103B000068A402D06894FCD71200D9CFE6FFE1CFB9
:103B1000D9FFE652FD0E010120155AE17E0E201557
:103B2000E8407F0B040DF3CF03F1F4CF04F1000E56
:103B30000327040E042303C105F104C106F1057532
:103B400003C1E9FF04C1EAFFEF503C0BE842E84241
:103B50000D083CE103C1E9FF04C1EAFF020EE926BA
:103B6000000EEA22EECF14F0EFCF15F0280E141855
:103B700002E1040E151828E103C1E9FF04C1EAFFC0
:103B8000020EE926000EEA22200EEE6E040EED6E05
:103B9000DF6ADF50146E156A080E145C000E1558AB
:103BA00013E2DF50EA6A280FE96E040EEA22EF50B2
:103BB000E66EDF50EA6A200FE96E040EEA22E55253
:103BC000E750EF6EDF2AE5D70DD801D02ED805D00B
:103BD000FD0E2015040801E14ED8E552E552E7CF6D
:103BE000D9FF12000BC1E9FF0CC1EAFFEF50800BB7
:103BF00005E00BC1E9FF0CC1EAFFEF6A01010F6BA1
:103C0000106B146B156B136BB6D8000EE66EE66A7C
:103C1000E66EE66A030EE66EE66A26EC12F0146EB5
:103C2000060EE15E145068EF20F0020E0101105DF7
:103C300002E1AEDB1FD06CD8010121511AE105C1B0
:103C4000E9FF06C1EAFFEE52080EEF6E05C1E9FF7B
:103C500006C1EAFF020EE926000EEA22200EEE6EF1
:103C6000040EED6E05C1E9FF06C1EAFF8C0EEF6E92
:103C700001D0216B1200D9CFE6FFE1CFD9FFE65288
:103C80000BC1E9FF0CC1EAFFEF50400B01E0010E50
:103C9000DF6E01010B75080E005D0AE122C46EFFA4
:103CA0006E50000803E2100E006F02D0040E006F89
:103CB000100528E10BC1E9FF0CC1EAFF020EE9265D
:103CC000000EEA22280EEE6E040EED6ED6DA020E1B
:103CD00001010F5D07E10BC1E9FF0CC1EAFF840E92
:103CE000EF6E0FD0DF5007E10BC1E9FF0CC1EAFF17
:103CF000C80EEF6E06D00BC1E9FF0CC1EAFF880EBB
:103D0000EF6E01D005D8E552E552E7CFD9FF12009A
:103D1000D9CFE6FFE1CFD9FF020EE1260101106BFA
:103D20000BC1E9FF0CC1EAFFEF6A040E0B19146E18
:103D30000CC115F014C0DEFF15C0DDFFDECFE9FFBA
:103D4000DDCFEAFFEF6A18AF0CD01B511C1107E062
:103D500005D01CC1FAFF01011B51F96EFADF010108
:103D6000189F020EE15C02E2E16AE552E16EE55263
:103D7000E7CFD9FF120004012051600BE842E8426E
:103D8000E842E842E842000901E058D021510C0A1B
:103D900054E00B0A43E00C0A35E0010A26E00B0A66
:103DA00022E0020A20E0030A1CE0080A10E0010AEF
:103DB0000CE00F0A08E0030A01E03FD00101138F75
:103DC000080E006F3BD0C8D839D080DB37D0010156
:103DD000010E116F010E126F1381010E146F138FFC
:103DE0002DD014D92BD02BD829D024510101116FFB
:103DF000126B020E1127010E12231381010E146F94
:103E0000138F1CD00101138F04012451EA6A020FA1
:103E1000E96E010EEA2222C4EFFF10D0000EE66E1A
:103E2000E66AE66EE66A020EE66EE66A26EC12F0D6
:103E3000146E060EE15E145001D000D01200D9CFEE
:103E4000E6FFE1CFD9FF040EE1260401220510E1CF
:103E500020511F0B00090CE10101138F030E040117
:103E6000215D04E10101010E1F6F02D001011F6BF2
:103E70000401225167E120511F0B020863E1245124
:103E80000F0B00095FE00101138F040124BF10D064
:103E900024510F0BE96EEA6AD890E936EA36070E2C
:103EA000E926010EEA22EECFDEFFEDCFDDFF0FD0D7
:103EB00024510F0BE96EEA6AD890E936EA360B0E08
:103EC000E926010EEA22EECFDEFFEDCFDDFF030E85
:103ED000215D07E1DECFE9FFDDCFEAFF840EEF6E63
:103EE00031D024510F0B156A700F146E0F0E15226E
:103EF000020E14C0DBFF030E15C0DBFF020EDBCF8A
:103F0000E9FF030EDBCFEAFFEE90ED5224AF0DD0B8
:103F1000DECFE9FFDDCFEAFFEF6ADF74DECFE9FF36
:103F2000DDCFEAFF400EEF6E0DD0DECFE9FFDDCF33
:103F3000EAFF880EEF6EDF74DECFE9FFDDCFEAFF28
:103F4000C80EEF6E040EE15C02E2E16AE552E16E3A
:103F5000E552E7CFD9FF1200800E0401205D55E144
:103F60000101C00E136F04012351030A2EE0010A60
:103F70000EE0030A03E00101136B47D00101280E94
:103F8000116F4A0E126F120E146F156B3ED0225134
:103F9000F66EF76AD890F636F736C70EF6264A0E52
:103FA000F7220900F5CF11F10A00F5CF12F1020E48
:103FB0000101F76A1125F66E1251F7220900F5CFBB
:103FC00014F10A00F5CF15F120D0030E225D1AE29C
:103FD0002251F66EF76AD890F636F736C90EF626F5
:103FE0004A0EF7220900F5CF11F10A00F5CF12F1C0
:103FF00011C1F6FF12C1F7FF0800F5500101146F5F
:10400000156B02D00101136B00D01200D9CFE6FF6F
:10401000E1CFD9FF020EE1260401286B296B205164
:104020001F0B020A13E0030A0EE0010A01E03CD074
:104030000101138F02D00401288101011F0502E153
:104040000401288331D00101138F2ED00101138F79
:10405000040124BF10D024510F0BE96EEA6AD890F6
:10406000E936EA36070EE926010EEA22EECFDEFF38
:10407000EDCFDDFF0FD024510F0BE96EEA6AD89027
:10408000E936EA360B0EE926010EEA22EECFDEFF14
:10409000EDCFDDFFDECFE9FFDDCFEAFFEF50040B10
:1040A00002E0010E286F00D0010113AF07D0280EE7
:1040B000116F040E126F1381020E146F020EE15C79
:1040C00002E2E16AE552E16EE552E7CFD9FF120064
:1040D0006D98010113BF4AD018AF28D0020E106F9F
:1040E0000BC1E9FF0CC1EAFFEE52EF6A0BC1E9FF19
:1040F0000CC1EAFFC80EEF6E05C1E9FF06C1EAFF79
:10410000EE52080EEF6E05C1E9FF06C1EAFF020E8E
:10411000E926000EEA22280EEE6E040EED6E05C1B1
:10412000E9FF06C1EAFFC80EEF6E1FD005C1E9FF27
:1041300006C1EAFFEE52080EEF6E05C1E9FF06C1A7
:10414000EAFF020EE926000EEA22200EEE6E040EB1
:10415000ED6E05C1E9FF06C1EAFF8C0EEF6E0BC1E3
:10416000E9FF0CC1EAFF840EEF6E86D018BF84D041
:10417000040120AF59D0010114510401265D010151
:1041800015510401275904E226C414F127C415F17E
:1041900074D80101010E106F05C1E9FF06C1EAFFE5
:1041A000EE52080EEF6E05C1E9FF06C1EAFF020EEE
:1041B000E926000EEA22200EEE6E040EED6E05C119
:1041C000E9FF06C1EAFF800EEF6E216B03C1E9FF34
:1041D00004C1EAFFEE52080EEF6E03C1E9FF04C10D
:1041E000EAFF020EE926000EEA22200EEE6E040E11
:1041F000ED6E03C1E9FF04C1EAFF840EEF6E010E0C
:10420000216F0BC1E9FF0CC1EAFF020EE926000E87
:10421000EA22280EEE6E040EED6E0BC1E9FF0CC112
:10422000EAFFC80EEF6E28D00101020E106F0BC11D
:10423000E9FF0CC1EAFFEE52EF6A0BC1E9FF0CC1C6
:10424000EAFFC80EEF6E05C1E9FF06C1EAFFEE52B4
:10425000080EEF6E05C1E9FF06C1EAFF020EE9266E
:10426000000EEA22280EEE6E040EED6E05C1E9FF87
:1042700006C1EAFFC80EEF6E1200D9CFE6FFE1CF0C
:10428000D9FF020EE1260101080E145D000E15593A
:104290000EE214C1DEFF15C1DDFF0F5103E1010E77
:1042A0000F6F04D00F0502E1020E0F6F03D0080E4E
:1042B000DE6EDD6A0BC1E9FF0CC1EAFFEF920BC1B4
:1042C000E9FF0CC1EAFFEF900BC1E9FF0CC1EAFF67
:1042D000010EDB50EF120BC1E9FF0CC1EAFFEE52F9
:1042E000DFCFEFFF000EDB50145F010EDB50155BDC
:1042F000280E1D6F040E1E6F13B121D0D9CFE9FF18
:10430000DACFEAFFEE50ED1019E011C1F6FF12C14D
:10431000F7FF112B000E12230800F550E66E1DC1A9
:10432000E9FF1EC1EAFF1D2B000E1E23E552E750D8
:10433000EF6EDF06010E01E2DB06E0D71FD0D9CF1A
:10434000E9FFDACFEAFFEE50ED1018E011C1E9FF06
:1043500012C1EAFF112B000E1223EF50E66E1DC1B1
:10436000E9FF1EC1EAFF1D2B000E1E23E552E75098
:10437000EF6EDF06010E01E2DB06E1D7020EE15C23
:1043800002E2E16AE552E16EE552E7CFD9FF1200A1
:10439000D9CFE6FFE1CFD9FF020EE12603C1E9FF45
:1043A00004C1EAFFEE52EFCFDFFFDFCF14F014506D
:1043B0000101195D000E1A5903E219C1DFFF09D08E
:1043C000DF50146E156A1450195D196F15501A5983
:1043D0001A6F010EDB6ADF50F36E010EDBCFF4FFC4
:1043E000F350F45C16E2010EDB50EA6A280FE96E26
:1043F000040EEA22EF50E66E16C1E9FF17C1EAFF8C
:10440000162B000E1723E552E750EF6E010EDB2A44
:10441000E2D7000ED8801955000E1A5528E205C1C2
:10442000E9FF06C1EAFFEE52080EEF6E05C1E9FF93
:1044300006C1EAFF020EE926000EEA22280EEE6E01
:10444000040EED6E03C1E9FF04C1EAFFEF50400B1B
:1044500007E105C1E9FF06C1EAFFC80EEF6E06D00D
:1044600005C1E9FF06C1EAFF880EEF6E25D005C140
:10447000E9FF06C1EAFFEE52080EEF6E05C1E9FF43
:1044800006C1EAFF020EE926000EEA22200EEE6EB9
:10449000040EED6E05C1E9FF06C1EAFF840EEF6E62
:1044A0001B511C1107E005D01CC1FAFF01011B5173
:1044B000F96EFADF0101189F020EE15C02E2E16A87
:1044C000E552E16EE552E7CFD9FF12000101138FEB
:1044D000000EE66EE66AE66A710EE66E0F0EE66E96
:1044E000D5EC25F0146E050EE15E1450010EE66E5B
:1044F000E66AE66A020EE66E010EE66ED5EC25F07F
:10450000146E050EE15E145022C401F10101015147
:1045100003E1100E006F12D0200E006F010EE66E48
:10452000E66A010EE66E010EE66E010EE66EE66AC2
:1045300026EC12F0146E060EE15E14501200D9CF74
:10454000E6FFE1CFD9FF020EE126000EDE6E040E7B
:10455000DD6EFD0EDB50E824166EFE0EDB50040D02
:10456000F3501624040DF350146E156A020E0F0B4F
:1045700005E0D89015321432E806FBE1D8901436E5
:104580001536D89014361536D9CFE9FFDACFEAFFC1
:104590001450EE261550ED22DECFE9FFDDCFEAFF05
:1045A000EF9EFD0EDB500FE1FE0EEA6ADB34FE0BE0
:1045B000EA36E96E070EE926010EEA22DECFEEFFAB
:1045C000DDCFEDFF0ED0FE0EEA6ADB34FE0BEA36DD
:1045D000E96E0B0EE926010EEA22DECFEEFFDDCFFB
:1045E000EDFFDECFE9FFDDCFEAFFEF9CDECFE9FF95
:1045F000DDCFEAFF040EE926000EEA22EF8C020E60
:10460000E15C02E2E16AE552E16EE552E7CFD9FFF3
:104610001200D9CFE6FFE1CFD9FF020EE126FE0E50
:10462000DB50156A700F146E0F0E152214C0DEFFDA
:1046300015C0DDFFDECFE9FFDDCFEAFFFD0EDBCFEA
:10464000EFFFDBA407D0E66AFE0EDBCFE6FF77DFE5
:10465000E552E552FD0EDBA208D0010EE66EFE0E1D
:10466000DBCFE6FF6CDFE552E552020EE15C02E2D1
:10467000E16AE552E16EE552E7CFD9FF1200D9CFEA
:10468000E6FFE1CFD9FF020EE126FE0EDB5020E16E
:1046900005C1E9FF06C1EAFFEE52080EEF6E05C143
:1046A000E9FF06C1EAFF020EE926000EEA22200E0B
:1046B000EE6E040EED6E05C1E9FF06C1EAFF8C0E39
:1046C000EF6E0BC1E9FF0CC1EAFF840EEF6E3DD027
:1046D000FD0EDB50E824166EFE0EDB50040DF35089
:1046E0001624040DF3CF14F0F4CF15F0000E1426A9
:1046F000040E152214C0DEFF15C0DDFF840E146EFB
:10470000DECFE9FFDDCFEAFF1450EF12FD0EDB50E4
:10471000E824166EFE0EDB50040DF3501624010F34
:10472000040DF3CF14F0F4CF15F0000E1426040E90
:10473000152214C0DEFF15C0DDFF840E146EDECF1F
:10474000E9FFDDCFEAFF1450EF12020EE15C02E256
:10475000E16AE552E16EE552E7CFD9FF1200D9CF09
:10476000E6FFE1CFD9FF020EE126FD0EDB500FE0A0
:10477000FE0EEA6ADB34FE0BEA36E96E0B0EE92622
:10478000010EEA22EECFDEFFEDCFDDFF0ED0FE0EF2
:10479000EA6ADB34FE0BEA36E96E070EE926010E03
:1047A000EA22EECFDEFFEDCFDDFFDECFE9FFDDCF8A
:1047B000EAFF020EE926000EEA22FB0EDBCFEEFF37
:1047C000FC0EDBCFEDFFDECFE9FFDDCFEAFFEE52DF
:1047D000FA0EDBCFEFFF400E146EDECFE9FFDDCF28
:1047E000EAFF1450EF16880E146EDECFE9FFDDCF1E
:1047F000EAFF1450EF12FD0EDB500CE0FE0EEA6AE9
:10480000DB34FE0BEA36E96E0B0EE926010EEA22D6
:10481000EF740BD0FE0EEA6ADB34FE0BEA36E96E6B
:10482000070EE926010EEA22EF74DECF14F0DDCF89
:1048300015F014C0F3FF15C0F4FF020EE15C03E2B3
:1048400000D0E16AE552E16EE552E7CFD9FF1200F0
:10485000D9CFE6FFE1CFD9FF6DA84ED0FE0EEA6AB0
:10486000DB34FE0BEA36E96E0B0EE926010EEA2276
:10487000EE50EFCFEAFFE96E400EEE16EE6AEE6AFA
:10488000EE6AFE0EEA6ADB34FE0BEA36E96E0B0EC8
:10489000E926010EEA22EE50EFCFEAFFE96EEE7C48
:1048A000FE0EEA6ADB34FE0BEA36E96E0B0EE926F1
:1048B000010EEA22EF74400E146EFE0EEA6ADB343B
:1048C000FE0BEA36E96E0B0EE926010EEA22EE50E7
:1048D000EFCFEAFFE96E1450EF16FE0EEA6ADB3402
:1048E000FE0BEA36E96E0B0EE926010EEA22EE50C7
:1048F000EFCFEAFFE96EEF7CE552E7CFD9FF120078
:1049000005D06D6A696A0101006B00D012000101D7
:10491000005113E16D6A696A160E6F6E9F0E6B6E21
:104920007B0E696ED08EA28AA08AF28E6DB602D0FE
:0C4930006D86FCD70101010E006F120023
:04493C000401205101
:104940001F0B010801E06FD0245101E06CD0060E6E
:10495000215D28E12351230A21E0010A11E0030A25
:1049600001E020D0010101050AE101014C0E116FA7
:104970004A0E126F090E146F156BC00E136F12D012
:10498000010101050AE10101A50E116F4A0E126F26
:10499000220E146F156BC00E136F04D00101800E30
:1049A000136F00D004012051600BE842E842E84256
:1049B000E842E842010801E036D021510B0A2DE01F
:1049C000080A20E0090A18E0080A0BE00B0A06E0D2
:1049D000080A01E028D00BEC1CF025D02BEC1CF0D1
:1049E00022D00101F20E116F000E126F010E146F32
:1049F000156BC10E136F17D00101800E136F23C406
:104A0000F2F011D00101F30E116F000E126F010EC2
:104A1000146F156B810E136F06D00101800E136F9A
:084A200022C4F3F000D01200E3
:084A2800120100020000000869
:104A3000D804E8FC0100010200010902290001017B
:104A400000C0FA090400000203000000092111015E
:104A50000001222200070581030800010705010368
:104A60001400010403090424035600690073007450
:104A700000610043004E0043002000500065006EBE
:104A800000640061006E00740020001A0369004D8C
:104A9000006100630068002000490049004900509F
:104AA000003400530006A0FF0901A101090315000D
:104AB00026FF007508950881020904150026FF00ED
:0F4AC000750895149102C03A4A634A674A8B4AB7
:104AD0002A0EF66E200EF76E000EF86E0001090029
:104AE000F550ED6F0900F550EE6F03E1ED6701D071
:104AF0003DD00900F550E86F0900F550E96F090055
:104B0000F550EA6F09000900F550E96E0900F5500B
:104B1000EA6E090009000900F550EB6F0900F55035
:104B2000EC6F09000900F6CFEFF0F7CFF0F0F8CF07
:104B3000F1F0E8C0F6FFE9C0F7FFEAC0F8FF0001B6
:104B4000EB5302E1EC5307E00900F550EE6EEB0782
:104B5000F8E2EC07F9D7EFC0F6FFF0C0F7FFF1C0BD
:0E4B6000F8FF0001ED07000EEE5BBFD712005C
:024B6E0008C07D
:104B700012F008500D02F4CF07F0F3CF06F0095001
:104B80000E02F4CF09F0F3CF08F00D02F350072620
:104B9000F4500822E86A092212500E02F350072648
:0A4BA000F4500822E86A0922000C14
:064BAA00FE0EE3CFE9FF5F
:104BB000FF0EE3CFEAFFE9CFF3FFEACFF4FFFB0EEE
:104BC000E35003E1FC0EE35009E0FB0EE30602E2D2
:0E4BD000FC0EE306FD0EE350EE6EF1D7120070
:024BDE0013EED4
:104BE00000F023EE00F0F86A019C68EC25F012EC6E
:0A4BF00026F07AEC10F0FBD712005B
:064BFA00056A080EE76EDB
:104C0000D890093605360E50055C02E3056E092A78
:064C1000E72EF7D71200A9
:0A4C160000EE00F00F0EEE6AEA62F5
:044C2000FDD71200AA
:024C240012007C
:0A4C26000000000000000000000084
:104C300000000A0A0000000A0A0000000A0A000038
:104C4000000A0A000000000A0000000056697374A0
:104C500061434E4300202020207632303000000097
:0C4C6000003075000000000000000000A3
:020000040030CA
:0100000024DB
:010001000EF0
:010002003FBE
:010003001EDE
:0100050001F9
:010006008178
:0100080008EF
:010009008076
:01000A000FE6
:01000B008074
:01000C000FE4
:01000D0000F2
:00000001FF
